{
  "_format": "hh-sol-artifact-1",
  "contractName": "BennyNFT",
  "sourceName": "contracts/BennyNFT.sol",
  "abi": [
    {
      "inputs": [
        {
          "internalType": "address",
          "name": "initialOwner",
          "type": "address"
        }
      ],
      "stateMutability": "nonpayable",
      "type": "constructor"
    },
    {
      "inputs": [
        {
          "internalType": "address",
          "name": "sender",
          "type": "address"
        },
        {
          "internalType": "uint256",
          "name": "tokenId",
          "type": "uint256"
        },
        {
          "internalType": "address",
          "name": "owner",
          "type": "address"
        }
      ],
      "name": "ERC721IncorrectOwner",
      "type": "error"
    },
    {
      "inputs": [
        {
          "internalType": "address",
          "name": "operator",
          "type": "address"
        },
        {
          "internalType": "uint256",
          "name": "tokenId",
          "type": "uint256"
        }
      ],
      "name": "ERC721InsufficientApproval",
      "type": "error"
    },
    {
      "inputs": [
        {
          "internalType": "address",
          "name": "approver",
          "type": "address"
        }
      ],
      "name": "ERC721InvalidApprover",
      "type": "error"
    },
    {
      "inputs": [
        {
          "internalType": "address",
          "name": "operator",
          "type": "address"
        }
      ],
      "name": "ERC721InvalidOperator",
      "type": "error"
    },
    {
      "inputs": [
        {
          "internalType": "address",
          "name": "owner",
          "type": "address"
        }
      ],
      "name": "ERC721InvalidOwner",
      "type": "error"
    },
    {
      "inputs": [
        {
          "internalType": "address",
          "name": "receiver",
          "type": "address"
        }
      ],
      "name": "ERC721InvalidReceiver",
      "type": "error"
    },
    {
      "inputs": [
        {
          "internalType": "address",
          "name": "sender",
          "type": "address"
        }
      ],
      "name": "ERC721InvalidSender",
      "type": "error"
    },
    {
      "inputs": [
        {
          "internalType": "uint256",
          "name": "tokenId",
          "type": "uint256"
        }
      ],
      "name": "ERC721NonexistentToken",
      "type": "error"
    },
    {
      "inputs": [
        {
          "internalType": "address",
          "name": "owner",
          "type": "address"
        }
      ],
      "name": "OwnableInvalidOwner",
      "type": "error"
    },
    {
      "inputs": [
        {
          "internalType": "address",
          "name": "account",
          "type": "address"
        }
      ],
      "name": "OwnableUnauthorizedAccount",
      "type": "error"
    },
    {
      "anonymous": false,
      "inputs": [
        {
          "indexed": true,
          "internalType": "address",
          "name": "owner",
          "type": "address"
        },
        {
          "indexed": true,
          "internalType": "address",
          "name": "approved",
          "type": "address"
        },
        {
          "indexed": true,
          "internalType": "uint256",
          "name": "tokenId",
          "type": "uint256"
        }
      ],
      "name": "Approval",
      "type": "event"
    },
    {
      "anonymous": false,
      "inputs": [
        {
          "indexed": true,
          "internalType": "address",
          "name": "owner",
          "type": "address"
        },
        {
          "indexed": true,
          "internalType": "address",
          "name": "operator",
          "type": "address"
        },
        {
          "indexed": false,
          "internalType": "bool",
          "name": "approved",
          "type": "bool"
        }
      ],
      "name": "ApprovalForAll",
      "type": "event"
    },
    {
      "anonymous": false,
      "inputs": [
        {
          "indexed": false,
          "internalType": "uint256",
          "name": "_fromTokenId",
          "type": "uint256"
        },
        {
          "indexed": false,
          "internalType": "uint256",
          "name": "_toTokenId",
          "type": "uint256"
        }
      ],
      "name": "BatchMetadataUpdate",
      "type": "event"
    },
    {
      "anonymous": false,
      "inputs": [
        {
          "indexed": false,
          "internalType": "uint256",
          "name": "_tokenId",
          "type": "uint256"
        }
      ],
      "name": "MetadataUpdate",
      "type": "event"
    },
    {
      "anonymous": false,
      "inputs": [
        {
          "indexed": true,
          "internalType": "address",
          "name": "previousOwner",
          "type": "address"
        },
        {
          "indexed": true,
          "internalType": "address",
          "name": "newOwner",
          "type": "address"
        }
      ],
      "name": "OwnershipTransferred",
      "type": "event"
    },
    {
      "anonymous": false,
      "inputs": [
        {
          "indexed": true,
          "internalType": "address",
          "name": "from",
          "type": "address"
        },
        {
          "indexed": true,
          "internalType": "address",
          "name": "to",
          "type": "address"
        },
        {
          "indexed": true,
          "internalType": "uint256",
          "name": "tokenId",
          "type": "uint256"
        }
      ],
      "name": "Transfer",
      "type": "event"
    },
    {
      "inputs": [
        {
          "internalType": "address",
          "name": "to",
          "type": "address"
        },
        {
          "internalType": "uint256",
          "name": "tokenId",
          "type": "uint256"
        }
      ],
      "name": "approve",
      "outputs": [],
      "stateMutability": "nonpayable",
      "type": "function"
    },
    {
      "inputs": [
        {
          "internalType": "address",
          "name": "owner",
          "type": "address"
        }
      ],
      "name": "balanceOf",
      "outputs": [
        {
          "internalType": "uint256",
          "name": "",
          "type": "uint256"
        }
      ],
      "stateMutability": "view",
      "type": "function"
    },
    {
      "inputs": [
        {
          "internalType": "uint256",
          "name": "tokenId",
          "type": "uint256"
        }
      ],
      "name": "getApproved",
      "outputs": [
        {
          "internalType": "address",
          "name": "",
          "type": "address"
        }
      ],
      "stateMutability": "view",
      "type": "function"
    },
    {
      "inputs": [],
      "name": "getLatestTokenId",
      "outputs": [
        {
          "internalType": "uint256",
          "name": "",
          "type": "uint256"
        }
      ],
      "stateMutability": "view",
      "type": "function"
    },
    {
      "inputs": [
        {
          "internalType": "address",
          "name": "owner",
          "type": "address"
        },
        {
          "internalType": "address",
          "name": "operator",
          "type": "address"
        }
      ],
      "name": "isApprovedForAll",
      "outputs": [
        {
          "internalType": "bool",
          "name": "",
          "type": "bool"
        }
      ],
      "stateMutability": "view",
      "type": "function"
    },
    {
      "inputs": [
        {
          "internalType": "address",
          "name": "recipient",
          "type": "address"
        }
      ],
      "name": "mintNFT",
      "outputs": [
        {
          "internalType": "uint256",
          "name": "",
          "type": "uint256"
        }
      ],
      "stateMutability": "nonpayable",
      "type": "function"
    },
    {
      "inputs": [],
      "name": "name",
      "outputs": [
        {
          "internalType": "string",
          "name": "",
          "type": "string"
        }
      ],
      "stateMutability": "view",
      "type": "function"
    },
    {
      "inputs": [],
      "name": "owner",
      "outputs": [
        {
          "internalType": "address",
          "name": "",
          "type": "address"
        }
      ],
      "stateMutability": "view",
      "type": "function"
    },
    {
      "inputs": [
        {
          "internalType": "uint256",
          "name": "tokenId",
          "type": "uint256"
        }
      ],
      "name": "ownerOf",
      "outputs": [
        {
          "internalType": "address",
          "name": "",
          "type": "address"
        }
      ],
      "stateMutability": "view",
      "type": "function"
    },
    {
      "inputs": [],
      "name": "renounceOwnership",
      "outputs": [],
      "stateMutability": "nonpayable",
      "type": "function"
    },
    {
      "inputs": [
        {
          "internalType": "address",
          "name": "from",
          "type": "address"
        },
        {
          "internalType": "address",
          "name": "to",
          "type": "address"
        },
        {
          "internalType": "uint256",
          "name": "tokenId",
          "type": "uint256"
        }
      ],
      "name": "safeTransferFrom",
      "outputs": [],
      "stateMutability": "nonpayable",
      "type": "function"
    },
    {
      "inputs": [
        {
          "internalType": "address",
          "name": "from",
          "type": "address"
        },
        {
          "internalType": "address",
          "name": "to",
          "type": "address"
        },
        {
          "internalType": "uint256",
          "name": "tokenId",
          "type": "uint256"
        },
        {
          "internalType": "bytes",
          "name": "data",
          "type": "bytes"
        }
      ],
      "name": "safeTransferFrom",
      "outputs": [],
      "stateMutability": "nonpayable",
      "type": "function"
    },
    {
      "inputs": [
        {
          "internalType": "address",
          "name": "operator",
          "type": "address"
        },
        {
          "internalType": "bool",
          "name": "approved",
          "type": "bool"
        }
      ],
      "name": "setApprovalForAll",
      "outputs": [],
      "stateMutability": "nonpayable",
      "type": "function"
    },
    {
      "inputs": [
        {
          "internalType": "bytes4",
          "name": "interfaceId",
          "type": "bytes4"
        }
      ],
      "name": "supportsInterface",
      "outputs": [
        {
          "internalType": "bool",
          "name": "",
          "type": "bool"
        }
      ],
      "stateMutability": "view",
      "type": "function"
    },
    {
      "inputs": [],
      "name": "symbol",
      "outputs": [
        {
          "internalType": "string",
          "name": "",
          "type": "string"
        }
      ],
      "stateMutability": "view",
      "type": "function"
    },
    {
      "inputs": [
        {
          "internalType": "uint256",
          "name": "tokenId",
          "type": "uint256"
        }
      ],
      "name": "tokenURI",
      "outputs": [
        {
          "internalType": "string",
          "name": "",
          "type": "string"
        }
      ],
      "stateMutability": "view",
      "type": "function"
    },
    {
      "inputs": [
        {
          "internalType": "address",
          "name": "from",
          "type": "address"
        },
        {
          "internalType": "address",
          "name": "to",
          "type": "address"
        },
        {
          "internalType": "uint256",
          "name": "tokenId",
          "type": "uint256"
        }
      ],
      "name": "transferFrom",
      "outputs": [],
      "stateMutability": "nonpayable",
      "type": "function"
    },
    {
      "inputs": [
        {
          "internalType": "address",
          "name": "newOwner",
          "type": "address"
        }
      ],
      "name": "transferOwnership",
      "outputs": [],
      "stateMutability": "nonpayable",
      "type": "function"
    }
  ],
  "bytecode": "0x60806040523480156200001157600080fd5b5060405162002ea038038062002ea08339818101604052810190620000379190620002b6565b806040518060400160405280600881526020017f42656e6e794e46540000000000000000000000000000000000000000000000008152506040518060400160405280600381526020017f4e465400000000000000000000000000000000000000000000000000000000008152508160009081620000b5919062000562565b508060019081620000c7919062000562565b505050600073ffffffffffffffffffffffffffffffffffffffff168173ffffffffffffffffffffffffffffffffffffffff16036200013f5760006040517f1e4fbdf70000000000000000000000000000000000000000000000000000000081526004016200013691906200065a565b60405180910390fd5b62000150816200018660201b60201c565b5060405180610260016040528061022d815260200162002c7361022d9139600990816200017e919062000562565b505062000677565b6000600760009054906101000a900473ffffffffffffffffffffffffffffffffffffffff16905081600760006101000a81548173ffffffffffffffffffffffffffffffffffffffff021916908373ffffffffffffffffffffffffffffffffffffffff1602179055508173ffffffffffffffffffffffffffffffffffffffff168173ffffffffffffffffffffffffffffffffffffffff167f8be0079c531659141344cd1fd0a4f28419497f9722a3daafe3b4186f6b6457e060405160405180910390a35050565b600080fd5b600073ffffffffffffffffffffffffffffffffffffffff82169050919050565b60006200027e8262000251565b9050919050565b620002908162000271565b81146200029c57600080fd5b50565b600081519050620002b08162000285565b92915050565b600060208284031215620002cf57620002ce6200024c565b5b6000620002df848285016200029f565b91505092915050565b600081519050919050565b7f4e487b7100000000000000000000000000000000000000000000000000000000600052604160045260246000fd5b7f4e487b7100000000000000000000000000000000000000000000000000000000600052602260045260246000fd5b600060028204905060018216806200036a57607f821691505b60208210810362000380576200037f62000322565b5b50919050565b60008190508160005260206000209050919050565b60006020601f8301049050919050565b600082821b905092915050565b600060088302620003ea7fffffffffffffffffffffffffffffffffffffffffffffffffffffffffffffffff82620003ab565b620003f68683620003ab565b95508019841693508086168417925050509392505050565b6000819050919050565b6000819050919050565b6000620004436200043d62000437846200040e565b62000418565b6200040e565b9050919050565b6000819050919050565b6200045f8362000422565b620004776200046e826200044a565b848454620003b8565b825550505050565b600090565b6200048e6200047f565b6200049b81848462000454565b505050565b5b81811015620004c357620004b760008262000484565b600181019050620004a1565b5050565b601f8211156200051257620004dc8162000386565b620004e7846200039b565b81016020851015620004f7578190505b6200050f62000506856200039b565b830182620004a0565b50505b505050565b600082821c905092915050565b6000620005376000198460080262000517565b1980831691505092915050565b600062000552838362000524565b9150826002028217905092915050565b6200056d82620002e8565b67ffffffffffffffff811115620005895762000588620002f3565b5b62000595825462000351565b620005a2828285620004c7565b600060209050601f831160018114620005da5760008415620005c5578287015190505b620005d1858262000544565b86555062000641565b601f198416620005ea8662000386565b60005b828110156200061457848901518255600182019150602085019450602081019050620005ed565b8683101562000634578489015162000630601f89168262000524565b8355505b6001600288020188555050505b505050505050565b620006548162000271565b82525050565b600060208201905062000671600083018462000649565b92915050565b6125ec80620006876000396000f3fe608060405234801561001057600080fd5b50600436106101165760003560e01c806370a08231116100a2578063a22cb46511610071578063a22cb465146102e1578063b88d4fde146102fd578063c87b56dd14610319578063e985e9c514610349578063f2fde38b1461037957610116565b806370a082311461026b578063715018a61461029b5780638da5cb5b146102a557806395d89b41146102c357610116565b806323b872dd116100e957806323b872dd146101b557806325d112a9146101d157806342842e0e146101ef57806354ba0f271461020b5780636352211e1461023b57610116565b806301ffc9a71461011b57806306fdde031461014b578063081812fc14610169578063095ea7b314610199575b600080fd5b61013560048036038101906101309190611b55565b610395565b6040516101429190611b9d565b60405180910390f35b6101536103f6565b6040516101609190611c48565b60405180910390f35b610183600480360381019061017e9190611ca0565b610488565b6040516101909190611d0e565b60405180910390f35b6101b360048036038101906101ae9190611d55565b6104a4565b005b6101cf60048036038101906101ca9190611d95565b6104ba565b005b6101d96105bc565b6040516101e69190611df7565b60405180910390f35b61020960048036038101906102049190611d95565b6105c6565b005b61022560048036038101906102209190611e12565b6105e6565b6040516102329190611df7565b60405180910390f35b61025560048036038101906102509190611ca0565b6106b8565b6040516102629190611d0e565b60405180910390f35b61028560048036038101906102809190611e12565b6106ca565b6040516102929190611df7565b60405180910390f35b6102a3610784565b005b6102ad610798565b6040516102ba9190611d0e565b60405180910390f35b6102cb6107c2565b6040516102d89190611c48565b60405180910390f35b6102fb60048036038101906102f69190611e6b565b610854565b005b61031760048036038101906103129190611fe0565b61086a565b005b610333600480360381019061032e9190611ca0565b610887565b6040516103409190611c48565b60405180910390f35b610363600480360381019061035e9190612063565b61099a565b6040516103709190611b9d565b60405180910390f35b610393600480360381019061038e9190611e12565b610a2e565b005b6000634906490660e01b7bffffffffffffffffffffffffffffffffffffffffffffffffffffffff1916827bffffffffffffffffffffffffffffffffffffffffffffffffffffffff191614806103ef57506103ee82610ab4565b5b9050919050565b606060008054610405906120d2565b80601f0160208091040260200160405190810160405280929190818152602001828054610431906120d2565b801561047e5780601f106104535761010080835404028352916020019161047e565b820191906000526020600020905b81548152906001019060200180831161046157829003601f168201915b5050505050905090565b600061049382610b96565b5061049d82610c1e565b9050919050565b6104b682826104b1610c5b565b610c63565b5050565b600073ffffffffffffffffffffffffffffffffffffffff168273ffffffffffffffffffffffffffffffffffffffff160361052c5760006040517f64a0ae920000000000000000000000000000000000000000000000000000000081526004016105239190611d0e565b60405180910390fd5b6000610540838361053b610c5b565b610c75565b90508373ffffffffffffffffffffffffffffffffffffffff168173ffffffffffffffffffffffffffffffffffffffff16146105b6578382826040517f64283d7b0000000000000000000000000000000000000000000000000000000081526004016105ad93929190612103565b60405180910390fd5b50505050565b6000600854905090565b6105e18383836040518060200160405280600081525061086a565b505050565b60006105f0610e8f565b600060085490506106018382610f16565b6106958160098054610612906120d2565b80601f016020809104026020016040519081016040528092919081815260200182805461063e906120d2565b801561068b5780601f106106605761010080835404028352916020019161068b565b820191906000526020600020905b81548152906001019060200180831161066e57829003601f168201915b505050505061100f565b6001600860008282546106a89190612169565b9250508190555080915050919050565b60006106c382610b96565b9050919050565b60008073ffffffffffffffffffffffffffffffffffffffff168273ffffffffffffffffffffffffffffffffffffffff160361073d5760006040517f89c62b640000000000000000000000000000000000000000000000000000000081526004016107349190611d0e565b60405180910390fd5b600360008373ffffffffffffffffffffffffffffffffffffffff1673ffffffffffffffffffffffffffffffffffffffff168152602001908152602001600020549050919050565b61078c610e8f565b610796600061106b565b565b6000600760009054906101000a900473ffffffffffffffffffffffffffffffffffffffff16905090565b6060600180546107d1906120d2565b80601f01602080910402602001604051908101604052809291908181526020018280546107fd906120d2565b801561084a5780601f1061081f5761010080835404028352916020019161084a565b820191906000526020600020905b81548152906001019060200180831161082d57829003601f168201915b5050505050905090565b61086661085f610c5b565b8383611131565b5050565b6108758484846104ba565b610881848484846112a0565b50505050565b606061089282610b96565b5060006006600084815260200190815260200160002080546108b3906120d2565b80601f01602080910402602001604051908101604052809291908181526020018280546108df906120d2565b801561092c5780601f106109015761010080835404028352916020019161092c565b820191906000526020600020905b81548152906001019060200180831161090f57829003601f168201915b50505050509050600061093d611457565b90506000815103610952578192505050610995565b60008251111561098757808260405160200161096f9291906121d9565b60405160208183030381529060405292505050610995565b6109908461146e565b925050505b919050565b6000600560008473ffffffffffffffffffffffffffffffffffffffff1673ffffffffffffffffffffffffffffffffffffffff16815260200190815260200160002060008373ffffffffffffffffffffffffffffffffffffffff1673ffffffffffffffffffffffffffffffffffffffff16815260200190815260200160002060009054906101000a900460ff16905092915050565b610a36610e8f565b600073ffffffffffffffffffffffffffffffffffffffff168173ffffffffffffffffffffffffffffffffffffffff1603610aa85760006040517f1e4fbdf7000000000000000000000000000000000000000000000000000000008152600401610a9f9190611d0e565b60405180910390fd5b610ab18161106b565b50565b60007f80ac58cd000000000000000000000000000000000000000000000000000000007bffffffffffffffffffffffffffffffffffffffffffffffffffffffff1916827bffffffffffffffffffffffffffffffffffffffffffffffffffffffff19161480610b7f57507f5b5e139f000000000000000000000000000000000000000000000000000000007bffffffffffffffffffffffffffffffffffffffffffffffffffffffff1916827bffffffffffffffffffffffffffffffffffffffffffffffffffffffff1916145b80610b8f5750610b8e826114d7565b5b9050919050565b600080610ba283611541565b9050600073ffffffffffffffffffffffffffffffffffffffff168173ffffffffffffffffffffffffffffffffffffffff1603610c1557826040517f7e273289000000000000000000000000000000000000000000000000000000008152600401610c0c9190611df7565b60405180910390fd5b80915050919050565b60006004600083815260200190815260200160002060009054906101000a900473ffffffffffffffffffffffffffffffffffffffff169050919050565b600033905090565b610c70838383600161157e565b505050565b600080610c8184611541565b9050600073ffffffffffffffffffffffffffffffffffffffff168373ffffffffffffffffffffffffffffffffffffffff1614610cc357610cc2818486611743565b5b600073ffffffffffffffffffffffffffffffffffffffff168173ffffffffffffffffffffffffffffffffffffffff1614610d5457610d0560008560008061157e565b6001600360008373ffffffffffffffffffffffffffffffffffffffff1673ffffffffffffffffffffffffffffffffffffffff168152602001908152602001600020600082825403925050819055505b600073ffffffffffffffffffffffffffffffffffffffff168573ffffffffffffffffffffffffffffffffffffffff1614610dd7576001600360008773ffffffffffffffffffffffffffffffffffffffff1673ffffffffffffffffffffffffffffffffffffffff168152602001908152602001600020600082825401925050819055505b846002600086815260200190815260200160002060006101000a81548173ffffffffffffffffffffffffffffffffffffffff021916908373ffffffffffffffffffffffffffffffffffffffff160217905550838573ffffffffffffffffffffffffffffffffffffffff168273ffffffffffffffffffffffffffffffffffffffff167fddf252ad1be2c89b69c2b068fc378daa952ba7f163c4a11628f55a4df523b3ef60405160405180910390a4809150509392505050565b610e97610c5b565b73ffffffffffffffffffffffffffffffffffffffff16610eb5610798565b73ffffffffffffffffffffffffffffffffffffffff1614610f1457610ed8610c5b565b6040517f118cdaa7000000000000000000000000000000000000000000000000000000008152600401610f0b9190611d0e565b60405180910390fd5b565b600073ffffffffffffffffffffffffffffffffffffffff168273ffffffffffffffffffffffffffffffffffffffff1603610f885760006040517f64a0ae92000000000000000000000000000000000000000000000000000000008152600401610f7f9190611d0e565b60405180910390fd5b6000610f9683836000610c75565b9050600073ffffffffffffffffffffffffffffffffffffffff168173ffffffffffffffffffffffffffffffffffffffff161461100a5760006040517f73c6ac6e0000000000000000000000000000000000000000000000000000000081526004016110019190611d0e565b60405180910390fd5b505050565b8060066000848152602001908152602001600020908161102f91906123a9565b507ff8e1a15aba9398e019f0b49df1a4fde98ee17ae345cb5f6b5e2c27f5033e8ce78260405161105f9190611df7565b60405180910390a15050565b6000600760009054906101000a900473ffffffffffffffffffffffffffffffffffffffff16905081600760006101000a81548173ffffffffffffffffffffffffffffffffffffffff021916908373ffffffffffffffffffffffffffffffffffffffff1602179055508173ffffffffffffffffffffffffffffffffffffffff168173ffffffffffffffffffffffffffffffffffffffff167f8be0079c531659141344cd1fd0a4f28419497f9722a3daafe3b4186f6b6457e060405160405180910390a35050565b600073ffffffffffffffffffffffffffffffffffffffff168273ffffffffffffffffffffffffffffffffffffffff16036111a257816040517f5b08ba180000000000000000000000000000000000000000000000000000000081526004016111999190611d0e565b60405180910390fd5b80600560008573ffffffffffffffffffffffffffffffffffffffff1673ffffffffffffffffffffffffffffffffffffffff16815260200190815260200160002060008473ffffffffffffffffffffffffffffffffffffffff1673ffffffffffffffffffffffffffffffffffffffff16815260200190815260200160002060006101000a81548160ff0219169083151502179055508173ffffffffffffffffffffffffffffffffffffffff168373ffffffffffffffffffffffffffffffffffffffff167f17307eab39ab6107e8899845ad3d59bd9653f200f220920489ca2b5937696c31836040516112939190611b9d565b60405180910390a3505050565b60008373ffffffffffffffffffffffffffffffffffffffff163b1115611451578273ffffffffffffffffffffffffffffffffffffffff1663150b7a026112e4610c5b565b8685856040518563ffffffff1660e01b815260040161130694939291906124d0565b6020604051808303816000875af192505050801561134257506040513d601f19601f8201168201806040525081019061133f9190612531565b60015b6113c6573d8060008114611372576040519150601f19603f3d011682016040523d82523d6000602084013e611377565b606091505b5060008151036113be57836040517f64a0ae920000000000000000000000000000000000000000000000000000000081526004016113b59190611d0e565b60405180910390fd5b805181602001fd5b63150b7a0260e01b7bffffffffffffffffffffffffffffffffffffffffffffffffffffffff1916817bffffffffffffffffffffffffffffffffffffffffffffffffffffffff19161461144f57836040517f64a0ae920000000000000000000000000000000000000000000000000000000081526004016114469190611d0e565b60405180910390fd5b505b50505050565b606060405180602001604052806000815250905090565b606061147982610b96565b506000611484611457565b905060008151116114a457604051806020016040528060008152506114cf565b806114ae84611807565b6040516020016114bf9291906121d9565b6040516020818303038152906040525b915050919050565b60007f01ffc9a7000000000000000000000000000000000000000000000000000000007bffffffffffffffffffffffffffffffffffffffffffffffffffffffff1916827bffffffffffffffffffffffffffffffffffffffffffffffffffffffff1916149050919050565b60006002600083815260200190815260200160002060009054906101000a900473ffffffffffffffffffffffffffffffffffffffff169050919050565b80806115b75750600073ffffffffffffffffffffffffffffffffffffffff168273ffffffffffffffffffffffffffffffffffffffff1614155b156116eb5760006115c784610b96565b9050600073ffffffffffffffffffffffffffffffffffffffff168373ffffffffffffffffffffffffffffffffffffffff161415801561163257508273ffffffffffffffffffffffffffffffffffffffff168173ffffffffffffffffffffffffffffffffffffffff1614155b80156116455750611643818461099a565b155b1561168757826040517fa9fbf51f00000000000000000000000000000000000000000000000000000000815260040161167e9190611d0e565b60405180910390fd5b81156116e957838573ffffffffffffffffffffffffffffffffffffffff168273ffffffffffffffffffffffffffffffffffffffff167f8c5be1e5ebec7d5bd14f71427d1e84f3dd0314c0f7b2291e5b200ac8c7c3b92560405160405180910390a45b505b836004600085815260200190815260200160002060006101000a81548173ffffffffffffffffffffffffffffffffffffffff021916908373ffffffffffffffffffffffffffffffffffffffff16021790555050505050565b61174e8383836118d5565b61180257600073ffffffffffffffffffffffffffffffffffffffff168373ffffffffffffffffffffffffffffffffffffffff16036117c357806040517f7e2732890000000000000000000000000000000000000000000000000000000081526004016117ba9190611df7565b60405180910390fd5b81816040517f177e802f0000000000000000000000000000000000000000000000000000000081526004016117f992919061255e565b60405180910390fd5b505050565b60606000600161181684611996565b01905060008167ffffffffffffffff81111561183557611834611eb5565b5b6040519080825280601f01601f1916602001820160405280156118675781602001600182028036833780820191505090505b509050600082602001820190505b6001156118ca578080600190039150507f3031323334353637383961626364656600000000000000000000000000000000600a86061a8153600a85816118be576118bd612587565b5b04945060008503611875575b819350505050919050565b60008073ffffffffffffffffffffffffffffffffffffffff168373ffffffffffffffffffffffffffffffffffffffff161415801561198d57508273ffffffffffffffffffffffffffffffffffffffff168473ffffffffffffffffffffffffffffffffffffffff16148061194e575061194d848461099a565b5b8061198c57508273ffffffffffffffffffffffffffffffffffffffff1661197483610c1e565b73ffffffffffffffffffffffffffffffffffffffff16145b5b90509392505050565b600080600090507a184f03e93ff9f4daa797ed6e38ed64bf6a1f01000000000000000083106119f4577a184f03e93ff9f4daa797ed6e38ed64bf6a1f01000000000000000083816119ea576119e9612587565b5b0492506040810190505b6d04ee2d6d415b85acef81000000008310611a31576d04ee2d6d415b85acef81000000008381611a2757611a26612587565b5b0492506020810190505b662386f26fc100008310611a6057662386f26fc100008381611a5657611a55612587565b5b0492506010810190505b6305f5e1008310611a89576305f5e1008381611a7f57611a7e612587565b5b0492506008810190505b6127108310611aae576127108381611aa457611aa3612587565b5b0492506004810190505b60648310611ad15760648381611ac757611ac6612587565b5b0492506002810190505b600a8310611ae0576001810190505b80915050919050565b6000604051905090565b600080fd5b600080fd5b60007fffffffff0000000000000000000000000000000000000000000000000000000082169050919050565b611b3281611afd565b8114611b3d57600080fd5b50565b600081359050611b4f81611b29565b92915050565b600060208284031215611b6b57611b6a611af3565b5b6000611b7984828501611b40565b91505092915050565b60008115159050919050565b611b9781611b82565b82525050565b6000602082019050611bb26000830184611b8e565b92915050565b600081519050919050565b600082825260208201905092915050565b60005b83811015611bf2578082015181840152602081019050611bd7565b60008484015250505050565b6000601f19601f8301169050919050565b6000611c1a82611bb8565b611c248185611bc3565b9350611c34818560208601611bd4565b611c3d81611bfe565b840191505092915050565b60006020820190508181036000830152611c628184611c0f565b905092915050565b6000819050919050565b611c7d81611c6a565b8114611c8857600080fd5b50565b600081359050611c9a81611c74565b92915050565b600060208284031215611cb657611cb5611af3565b5b6000611cc484828501611c8b565b91505092915050565b600073ffffffffffffffffffffffffffffffffffffffff82169050919050565b6000611cf882611ccd565b9050919050565b611d0881611ced565b82525050565b6000602082019050611d236000830184611cff565b92915050565b611d3281611ced565b8114611d3d57600080fd5b50565b600081359050611d4f81611d29565b92915050565b60008060408385031215611d6c57611d6b611af3565b5b6000611d7a85828601611d40565b9250506020611d8b85828601611c8b565b9150509250929050565b600080600060608486031215611dae57611dad611af3565b5b6000611dbc86828701611d40565b9350506020611dcd86828701611d40565b9250506040611dde86828701611c8b565b9150509250925092565b611df181611c6a565b82525050565b6000602082019050611e0c6000830184611de8565b92915050565b600060208284031215611e2857611e27611af3565b5b6000611e3684828501611d40565b91505092915050565b611e4881611b82565b8114611e5357600080fd5b50565b600081359050611e6581611e3f565b92915050565b60008060408385031215611e8257611e81611af3565b5b6000611e9085828601611d40565b9250506020611ea185828601611e56565b9150509250929050565b600080fd5b600080fd5b7f4e487b7100000000000000000000000000000000000000000000000000000000600052604160045260246000fd5b611eed82611bfe565b810181811067ffffffffffffffff82111715611f0c57611f0b611eb5565b5b80604052505050565b6000611f1f611ae9565b9050611f2b8282611ee4565b919050565b600067ffffffffffffffff821115611f4b57611f4a611eb5565b5b611f5482611bfe565b9050602081019050919050565b82818337600083830152505050565b6000611f83611f7e84611f30565b611f15565b905082815260208101848484011115611f9f57611f9e611eb0565b5b611faa848285611f61565b509392505050565b600082601f830112611fc757611fc6611eab565b5b8135611fd7848260208601611f70565b91505092915050565b60008060008060808587031215611ffa57611ff9611af3565b5b600061200887828801611d40565b945050602061201987828801611d40565b935050604061202a87828801611c8b565b925050606085013567ffffffffffffffff81111561204b5761204a611af8565b5b61205787828801611fb2565b91505092959194509250565b6000806040838503121561207a57612079611af3565b5b600061208885828601611d40565b925050602061209985828601611d40565b9150509250929050565b7f4e487b7100000000000000000000000000000000000000000000000000000000600052602260045260246000fd5b600060028204905060018216806120ea57607f821691505b6020821081036120fd576120fc6120a3565b5b50919050565b60006060820190506121186000830186611cff565b6121256020830185611de8565b6121326040830184611cff565b949350505050565b7f4e487b7100000000000000000000000000000000000000000000000000000000600052601160045260246000fd5b600061217482611c6a565b915061217f83611c6a565b92508282019050808211156121975761219661213a565b5b92915050565b600081905092915050565b60006121b382611bb8565b6121bd818561219d565b93506121cd818560208601611bd4565b80840191505092915050565b60006121e582856121a8565b91506121f182846121a8565b91508190509392505050565b60008190508160005260206000209050919050565b60006020601f8301049050919050565b600082821b905092915050565b60006008830261225f7fffffffffffffffffffffffffffffffffffffffffffffffffffffffffffffffff82612222565b6122698683612222565b95508019841693508086168417925050509392505050565b6000819050919050565b60006122a66122a161229c84611c6a565b612281565b611c6a565b9050919050565b6000819050919050565b6122c08361228b565b6122d46122cc826122ad565b84845461222f565b825550505050565b600090565b6122e96122dc565b6122f48184846122b7565b505050565b5b818110156123185761230d6000826122e1565b6001810190506122fa565b5050565b601f82111561235d5761232e816121fd565b61233784612212565b81016020851015612346578190505b61235a61235285612212565b8301826122f9565b50505b505050565b600082821c905092915050565b600061238060001984600802612362565b1980831691505092915050565b6000612399838361236f565b9150826002028217905092915050565b6123b282611bb8565b67ffffffffffffffff8111156123cb576123ca611eb5565b5b6123d582546120d2565b6123e082828561231c565b600060209050601f8311600181146124135760008415612401578287015190505b61240b858261238d565b865550612473565b601f198416612421866121fd565b60005b8281101561244957848901518255600182019150602085019450602081019050612424565b868310156124665784890151612462601f89168261236f565b8355505b6001600288020188555050505b505050505050565b600081519050919050565b600082825260208201905092915050565b60006124a28261247b565b6124ac8185612486565b93506124bc818560208601611bd4565b6124c581611bfe565b840191505092915050565b60006080820190506124e56000830187611cff565b6124f26020830186611cff565b6124ff6040830185611de8565b81810360608301526125118184612497565b905095945050505050565b60008151905061252b81611b29565b92915050565b60006020828403121561254757612546611af3565b5b60006125558482850161251c565b91505092915050565b60006040820190506125736000830185611cff565b6125806020830184611de8565b9392505050565b7f4e487b7100000000000000000000000000000000000000000000000000000000600052601260045260246000fdfea26469706673582212205787438de34d8a93c2b7e8e35b6b5396c6cdc22e5d48a9a9338e7e6c776be3b064736f6c63430008140033646174613a6170706c69636174696f6e2f6a736f6e3b6261736536342c65776f6749434a68636e5270633351694f694169516d5675626e6b6755326c6b5a577870626d646c6369497343694167496e52706447786c496a6f67496b7870644852735a5342545958526a614756734969774b494341695a47567a59334a7063485270623234694f694169515342795a586476636d736762325967595734676232786b4946646c63335167566d6c795a326c7561574567644856755a53497343694167496d6c745957646c496a6f67496d68306448427a4f6938765a444672597a646c5932307a5a33566c4d334d75593278766457526d636d3975644335755a5851764d5335716347566e4969774b494341696258417a496a6f67496d68306448427a4f6938765a444672597a646c5932307a5a33566c4d334d75593278766457526d636d3975644335755a585176633246305932686c6243357463444d694c416f6749434a3359585a6c496a6f67496d68306448427a4f6938765a444672597a646c5932307a5a33566c4d334d75593278766457526d636d3975644335755a585176633246305932686c6246393359585a6c4c6e64686469497343694167496d463064484a70596e56305a584d694f6942624369416749434237436941674943416749434a30636d4670644639306558426c496a6f67496d4673596e56744969774b4943416749434167496e5a686248566c496a6f67496b526c6257386943694167494342394369416758517039",
  "linkReferences": {},
  "deployedLinkReferences": {}
}